:020000040800F2
:1000000000040020B9010008BB010008BB01000882
:10001000BB010008BB010008BB010008BB010008D0
:10002000BB010008BB010008BB0100087DAD000852
:10003000BB010008BB010008BB010008C7C10008E4
:10004000BB010008BB010008BB010008BB010008A0
:10005000BB010008BB010008B9BE0008E1BE0008F2
:1000600009BF000831BF000859BF0008BB010008E4
:10007000BB010008BB0100085DC80008BB01000807
:1000800081BF0008BB010008BB010008BB010008DC
:10009000BB010008BB010008BB010008BB01000850
:1000A000BB010008BB01000871C4000885C400083A
:1000B000BB010008BB010008BB010008BB01000830
:1000C000E5C10008E5BF0008BB010008BB0100084E
:1000D000BB010008BB010008BB010008BB01000810
:1000E00072B6264880F30888254880F30988254899
:1000F00025490860022080F31488BFF36F8F0AF04F
:1001000073FB09F02BFF4FF0553020491B4A9142F9
:100110003CBF41F8040BFAE71D49194A91423CBF24
:1001200041F8040BFAE71B491B4A1C4B9A423EBF9D
:1001300051F8040B42F8040BF8E700201849194A5B
:1001400091423CBF41F8040BFAE70AF051FB0AF078
:100150004CFB154C154DAC4203DA54F8041B884790
:10016000F9E704F05FFE124C124DAC4203DA54F88A
:10017000041B8847F9E70AF039BB0000000400209F
:10018000000C00200000000808ED00E00000002046
:10019000000400204CEB0008000C0020EC120020B2
:1001A000F012002088480020E0000008E00000086D
:1001B000E0000008E000000892E700F000F8FEE729
:1001C0002DE9F04FC1F80CD0C3689D46BDE8F08F13
:1001D000002383F311882846A04700200AF0D4FCAE
:1001E000FEE70AF02BFC00DFFEE7000053B94AB936
:1001F000002908BF00281CBF4FF0FF314FF0FF302F
:1002000000F076B9ADF1080C6DE904CE00F019F8F4
:10021000DDF804E0DDE9022304B07047430803F091
:100220005533C31A03F033309B0803F033331844BB
:100230004FF0013300EB101000F00F305843000E68
:1002400070472DE9F0478C46154604461E46089F28
:10025000002B40F0CB808A4248D9B2FA82F149B1F2
:10026000C1F120030CFA01FC20FA03F38D4043EAAC
:100270000C0C8C404FEA154EBCFBFEF8A8B20EFBEE
:1002800018CC08FB00F9230C43EA0C43994529D903
:10029000EB1808F1FF3204D2994502D9A8F1020205
:1002A0002B44A3EB0903B3FBFEFC0EFB1C330CFB3E
:1002B00000F0A4B244EA0344A04215D92C190CF171
:1002C000FF3304D2A04202D9ACF102032C44241A19
:1002D00043EA02401FB10023CC403C607B603146C2
:1002E000BDE8F0874246DCE76346F0E7002A73D0BA
:1002F000B2FA82F3DBB31E4602FA06F5C6F120031A
:1003000021FA03F24FEA154EB14020FA03F30B43F2
:10031000B2FBFEF100FA06F40EFB112CA8B201FBB1
:1003200000F81A0C42EA0C42904557D9AA1801F17C
:10033000FF3C04D2904502D9A1F1020C2A44A2EB61
:100340000802B2FBFEF10EFB112248439BB243EAC6
:100350000243984244D9EB1801F1FF3203D298428C
:1003600001D98A1E2B441B1A42EA0C4201E08B1A67
:1003700001224FEA154EB3FBFEFCA8B20EFB1C3364
:100380000CFB00F8210C41EA034398452AD9EB18ED
:100390000CF1FF3104D2984502D9ACF102012B4493
:1003A000A3EB0803B3FBFEFC0EFB1C330CFB00F0BD
:1003B000A4B244EA0344A04216D92C190CF1FF332D
:1003C00004D2A04202D9ACF102032C44241A43EA1D
:1003D0000140314616467DE71F268DE78C46AEE785
:1003E0000A46C0E76146DBE76346EFE78B4206D982
:1003F00017B90026304672E7C7E90001F9E7B3FAFA
:1004000083F686B98B4201D3824207D8841A61EB06
:10041000030301209C461FB9002660E73046FAE737
:10042000C7E9004CF8E7C6F1200CB34022FA0CF4FF
:100430001C434FEA144921FA0CF3B3FBF9F820FAF4
:100440000CF5B14029431FFA84FE00FA06F509FBBA
:10045000183008FB0EFA0B0C43EA00439A4502FAE7
:1004600006F240D9E31808F1FF3004D29A4502D9C8
:10047000A8F102002344A3EB0A03B3FBF9F809FB3C
:10048000183308FB0EFE89B241EA03418E452CD990
:10049000611808F1FF3304D28E4502D9A8F1020396
:1004A000214443EA0040A0FB0298A1EB0E01414524
:1004B000CE46434602D306D14D4504D2B9EB020ED7
:1004C00068EB04030138002FA6D0B5EB0E0261EBF8
:1004D000030101FA0CFC22FA06F34CEA0303F14093
:1004E000C7E9003198E74046C5E74346D9E7000031
:1004F000704700BF034613F8012B002AFBD1181ADE
:1005000001387047032806D8B42202FB00F10248E4
:10051000243104F0E9BC7047F0120020032838B5FC
:100520000CD8084A00231478012C07D1557885424D
:1005300006D11370FFF7E6FF204638BD0020FCE728
:100540001846FAE7000C0020F7B504460F4607F0FE
:1005500069FA2D4D2D4E68805FFA84FC674550D9AD
:1005600000212B4A11E090F800E0BEF1FF0F01D00E
:10057000E6451AD00133DBB20F2B00F10100F2D1B6
:100580000131062902F10F0239D010460023EAE7B3
:10059000012906D1012B04D10022AB78ADF800204F
:1005A00015E06B88ADF8000011E032683AB31E2008
:1005B00000FB012232F8131032F81300090A12F876
:1005C000133040BAE4D1002BEBD1ADF800308DF8F8
:1005D0000230009805F002F8C0F307238DF80400FC
:1005E000C0F307408DF805308DF806009DF8063001
:1005F00020469DF804209DF8051005F0F3FC013419
:10060000AAE703B0F0BD00BF000C0020A413002037
:100610002D0C002041EA0203184370B405D170BCD0
:100620000146B4220A480CF046BC00241E260F23C3
:1006300006FB04F50648013B13F0FF03017042700E
:100640002844F8D10134062CF1D170BC704700BFAA
:10065000F0120020032806D8B42202FB00F1024861
:10066000243104F089BC7047F0120020074B084A7F
:1006700010B51A600023074C2370607007F0D2F9A0
:1006800060806078BDE81040FFF7E4BFA41300204D
:10069000F0120020000C0020032808B50DD8084AED
:1006A0005070FFF7D7FF07F053F92D2801D1012033
:1006B00008BD2D2007F049F9F9E70020F8E700BF51
:1006C000000C0020032808B511D80A4B197871B91D
:1006D000012158701970FFF7BDFF07F039F92D2877
:1006E00001D1012008BD2D2007F02FF9F9E70020E6
:1006F000F8E700BF000C0020024B1878431E584258
:1007000058417047000C002070B5124B1B78012B2C
:100710001DD1114A12688AB11E24487804FB0022B8
:1007200008780E4932F810400D460E88A64207D1CF
:1007300003F0070335F8133022F81030012070BDA4
:100740000133092B01F10201EFD10023F4E700206E
:10075000F5E700BF000C0020A41300204ADD0008CC
:100760004FF434722421014804F0BEBB74DE00084B
:1007700038B50024074D07F0EBF82B78834206D0FC
:100780000134102C05F10105F5D1002038BDE0B28F
:10079000FCE700BF3ADD000808B5FFF7E9FF00F508
:1007A0003E7004F059FB062828BF002008BD000059
:1007B00038B50446FFF7DCFF0E4B1A78431C03F0F4
:1007C0000F03012A08BF03460B4AD05C207007F0D4
:1007D000BCF8FFF7E1FF094B13F8104003EB4003AF
:1007E0005D7807F01FF9294602462046BDE83840EB
:1007F00007F0F1B8000C00203ADD000829DD000800
:10080000F8B50746FFF7C8FF07250446174E07F05F
:100810009FF83378834221D0013D15F0FF0506F1A2
:100820000106F4D10423DFB1A3421CD00134104BE4
:10083000E4B213F8145003EB44035E7807F0F2F8C7
:1008400031460246284607F0C6F8FFF791FF2146D9
:1008500000F53E7004F028FB2046F8BD0323E2E7D4
:100860000CB1013CE3E7FF24F6E700BF33DD0008ED
:1008700029DD00087FB51E4B1B78002B33D00022EA
:100880001146104605F01AFC00250A2601AC0A2282
:10089000184901A80CF05CFB00F008FE0378EAB2EE
:1008A000B3FBF6F3934200D8FDB900F0FFFD0378E7
:1008B000312B04D900239622194620780CE000F051
:1008C000F5FD03461B7820781D2B4FF0000387BFF2
:1008D000962219461A469621013505F083FB0A2D0A
:1008E00004F10104D3D104B070BD00231A46E3E73C
:1008F0009C3A0020DFDB000838B50D46074C30B1CC
:1009000008F04EFF002320602B70002038BD2068C7
:1009100008F08AFF3228F3D8F7E700BFAC130020B5
:10092000014B1860704700BFB013002038B500F0CD
:10093000B9FD284C027823789A4206D000F0B2FD27
:10094000002203782370244B1A6000F0ABFD03787B
:10095000022B16D0032B04D00BB91F4A13600120C1
:1009600038BD1D4C25689DB908F01AFF206000F0C5
:1009700093F9044600F090F92A460146204601F01A
:10098000FBFC154C2068C0B908F00AFF2060E6E7C0
:10099000284608F049FF47F22F539842F1D908F052
:1009A000FFFE2060112000F030FF44F620600AF0C6
:1009B000F0F8012000F09EFBE3E708F035FF4EF66B
:1009C0005F239842CBD908F0EBFE2060012000F0B5
:1009D00091FBC4E7A8130020B013002007B58DF8E1
:1009E00007100DF10701FFF787FFFFF79FFF0020BA
:1009F00003B000BD244B2DE9F0411B78BBB10F259E
:100A00004FF00108214E56F8041B4B1C0BD021F06F
:100A10000F0701F00F0108FA01F4012221463846C0
:100A20000BF060FBBC61013D15F0FF05EBD100222E
:100A300080214FF080400BF055FB00BF00BF00BF8E
:100A400000BF00BF00BF00BF00BF00BF00BF00BFAE
:100A500000BF00BF00BF00BF00BF00BF00BF00BF9E
:100A600000BF00BF00BF00BF00BF302383F3118869
:100A7000012207214FF080400BF054FB002383F349
:100A80001188BDE8F08100BF9A1D00205CDD0008E0
:100A9000072802D1032000F00DBB704708B54FF4C2
:100AA00000124FF080439A614FF000729A614FF448
:100AB0008022C3F8182C084B1B785BB1112000F082
:100AC000A4FE44F620600AF064F8BDE80840022065
:100AD00000F0F0BA08BD00BF9A1D002010B5084C08
:100AE000237863B100F0ECFA033801289DBF00239E
:100AF000032023700220BDE8104000F0CDBA10BDE5
:100B00009A1D002008B500F0CDFC0378022B03D11C
:100B100000F0D0FC007808BD0020FCE700F0B2BC7B
:100B200070470000F8B51546B0FA80F3B1FA81F2CB
:100B30005B0952099A4206460C4605D000290CBFB3
:100B40000120022000F038FA0F4F3B78A34200D179
:100B50003DB100F0A7FC0323037000F0ABFC0023C1
:100B600003703C7003F052FD2946204600F0DAFE87
:100B70002A462146304601F0FFFB2A4621463046F0
:100B8000FFF7CEFFF8BD00BFC713002037B50546FD
:100B900000F088FC0378012B0DD00024CDE900443F
:100BA00000F080FC0378022B07D0094B224619780D
:100BB0000846FFF7B7FF03B030BD25B1082229462C
:100BC00068460CF0C5F9684600F08AFDF3E700BFFF
:100BD000C713002037B5044600F064FC0378012BEE
:100BE0000ED0002500958DF8045000F05BFC0378D2
:100BF000022B07D00D4B2A4619780846FFF792FFC3
:100C000003B030BD74B163788DF80030A3788DF8EF
:100C10000130E3788DF8023063798DF80330237961
:100C20008DF80430684600F0B5FDE9E7C7130020F1
:100C300037B5044600F036FC0378012B0DD00025B3
:100C4000ADF8065000F02EFC0378022B07D0114BB4
:100C50002A4619780846FFF765FF03B030BD002C1F
:100C6000FBD0A278637843EA0223ADF80630813BDB
:100C7000022B09D801220DF1060002FA03F3ADF8A8
:100C8000063000F073FDE8E70DF1060000F059FDB5
:100C9000E3E700BFC7130020014B1878704700BF7F
:100CA000C713002010B5174C00232278032A26D83A
:100CB000DFE802F0020C151E0A2213490846CB7029
:100CC0008A7008F0A9FB0123237010BD0E4A9370AF
:100CD000F6231046D37008F09FFB0223F4E7F622B8
:100CE00009490846CB708A7008F096FB0323EBE7AE
:100CF000054A93700A231046D37008F08DFB002339
:100D0000E2E700BFBE130020B813002070470000C8
:100D100010B5FFF7FBFF00F0D3FA00F0D5FB01F0B0
:100D20001BF900F065F9012803D1BDE8104000F07F
:100D300065B900F0ABF968B9074C206808F074FD9C
:100D400040F6B733984205D900F03EFE10B108F0E6
:100D500027FD206010BD00BFB41300202DE9F04F27
:100D60008FB00E220021824602A80CF0A4F800F0F9
:100D700099FB0378012B0AD000F094FB0378022B37
:100D800008D0594B002219780846FFF7CBFE0FB068
:100D9000BDE8F08FBAF1000F00F09D804FF01E0803
:100DA00000262022514606A80CF0D2F84F4F9DF89D
:100DB00019300DF119043B7014F8010FFFF72EFAEA
:100DC00008F1FF38304418F0FF08C6B2F4D14FF0F4
:100DD000060BDFF81C9119F8013F7BB30024224673
:100DE000D3B29E4206D899F80030A34218BF89F8C2
:100DF00000801EE000230DF1190111F8010F10B958
:100E000001331E2BF9D11C4638336B4413F81E0CEA
:100E1000019202F001FB40EAC404E4B2214606A8B4
:100E200008F0C0FB99F80030019AA34202F10102D8
:100E3000D6D10BF1FF3B1BF0FF0BCCD1202251464A
:100E400006A80CF085F84FF000084FF001095FFA92
:100E500088F39E420AD800F0F9FA002841D12348CD
:100E600008F0C8FA02A800F053FC90E700230DF147
:100E7000190212F8011F11B901331E2BF9D11C46BA
:100E800038336B4413F81E0C02F0C6FA40EAC4046F
:100E9000E4B2214606A808F085FB0023144A12F8A4
:100EA000011FA14202D021B93B449C7008F1010806
:100EB000CDE70133062BF2D16F2CF7D80EAB03EB45
:100EC000D40313F8302C04F0070409FA04F4144393
:100ED00003F8304CEAE70822514604480BF0EBFFD8
:100EE000B9E7FFF715FFB6E7C7130020BF130020CF
:100EF000C013002008B5064B1B7823B9054B1B789F
:100F00000BB1FFF7CFFEBDE80840FFF701BF00BF00
:100F1000C7130020BB3A002070B5044658B108F052
:100F200057FA0C4B984205D0184608F04BFA0122AC
:100F3000094B1A7070BD00F0B5FA0378022BF9D195
:100F4000044D20466B6898472046AB68BDE870406A
:100F5000184700BF040C0020A80D002038B5044637
:100F600088B108F035FA114CA0421ED00122104B76
:100F70001A7000F0BBFF0F4808F072FF2046BDE872
:100F8000384008F01FBA0B4B1B78042B05D1074DD6
:100F90006B6898472046AB68984706480AF063FBA1
:100FA00004480AF069FF00F0A9FF38BDAC0D00202D
:100FB0009E3500203448002010B50C4B04461A78AA
:100FC000824204D00128187002D0022807D010BD38
:100FD0000020FFF7A1FF2046FFF7C0FFF7E7002042
:100FE000FFF7BCFF0120FFF797FFF0E7180C002088
:100FF000014B1878704700BF180C002010B50D4B3E
:101000000D4C1B78052B11D1206810B908F0C8FBD6
:10101000206008F009FC42F20F73984208D90023BF
:1010200001202360BDE8104000F064B80023236075
:1010300010BD00BF34480020C813002010B50B4C71
:101040002378052B10D1B4F84C309B0708D508F055
:1010500057FB28B120460AF091FB054809F099FD9D
:10106000BDE8104008F06EBB10BD00BF3448002042
:10107000A086010008B5044B1B78012B01D1FFF7B6
:10108000DDFF012008BD00BF180C0020014B1878BF
:10109000704700BFD8130020014B1870704700BF85
:1010A000D813002008B508F07BFB014B186008BD81
:1010B000D0130020014B1870704700BFCE130020E2
:1010C000014B1878704700BFCE130020302310B5B5
:1010D00083F3118800F0AEFC002484F3118872B60B
:1010E00000F0F4FD00F04AFD03F0B4FD84F3118834
:1010F00062B610BD014B1870704700BFCD130020C1
:1011000010B5074C237828B11BB1FFF7CBFF0323A1
:10111000237010BD002BFCD10122024B1A70F8E79E
:10112000D8130020CD1300200F4B70B51E6800F0BF
:101130000CFF0E4D044618B900232B7000240AE062
:10114000FFF7AAFD18B90A4B1B78042BF4D02B78B3
:101150001BB100232B70204670BD002EEED003F093
:101160004FFAB042EAD3F4E7D4130020CD130020A5
:101170003448002010B5FFF78FFD70B9084B1B787D
:101180005BB9084C2378012B07D000F0B7FE20464E
:101190000AF072FE20460AF066FA012010BD00BF78
:1011A000A11D00203448002008B5FFF7E3FF38B147
:1011B000044B186808F038FBC72894BF00200120B2
:1011C00008BD00BFD01300200120704708B5FFF70D
:1011D000FBFF38B1044B186808F026FBC72894BF02
:1011E0000020012008BD00BFD013002070B5FFF71C
:1011F00053FD044668B9084E3578012D09D100F039
:1012000075FE304608F02CFE224621462846FFF7A0
:1012100089FC012070BD00BF3448002008B5FFF7ED
:10122000E5FF38B1044B186808F0FEFAC72894BFF0
:101230000020012008BD00BFD0130020704700002F
:1012400008B506F057FB003818BF0120044B187092
:1012500006F038FB08F06DFAFFF7F0FF08BD00BF9D
:10126000CC130020002310B5074C2370FFF716FCA9
:10127000FFF72CFF2378054A022B18BF03231370B6
:10128000FFF72CFC10BD00BFCE130020D8130020A8
:1012900008B5094B1B780BB106F0FAFA08F052FAC0
:1012A00001F024FF03F0B2F9BDE808400C22002150
:1012B00002480BF000BE00BFCC13002014440020F5
:1012C00010B5184C2378032B0AD8DFE803F0020A84
:1012D000141DFFF729FF18B1FFF7E4FE0123237067
:1012E00010BDFFF761FF0028FAD0FFF7A9FFFFF755
:1012F000D9FE0223F3E7FFF769FF0028F0D0FFF7DC
:10130000D1FEFFF7AFFFEBE7FFF788FF0028E7D03C
:10131000FFF7BEFFFFF7C6FE0023034A23701370DA
:10132000DEE700BFD8130020CD130020202938B5F8
:1013300005460C4610D1FFF75BFE012806D1224678
:101340002946BDE83840022008F0CEBD2146284697
:10135000BDE8384000F0C5BA38BD07F05ABF0000FC
:10136000054A064B06495A60116051609A60DA607E
:10137000002219611A707047C01B0020DC13002086
:10138000F01300202DE9F041164C0F466668A56861
:1013900006F59C784545E36804D19E4206D10020BD
:1013A000BDE8F08105F108029342F7E70E4B226990
:1013B0009A1A312A9CBFA3F2CF732361322FEED841
:1013C00001463A4620690BF0C3FD454500EB070393
:1013D000286023616B6002D1A6600120E0E7083538
:1013E000A560FAE7DC130020BF1B0020074A10B5F8
:1013F000D3689268934207D0D3E90014641A224656
:101400000BF0A6FD204610BD0024FBE7DC130020F6
:10141000074BDA6899688A4208D0596801F59C70D0
:10142000824201D1D96070470832DA60704700BF4C
:10143000DC130020014B1878704700BFDC1300203C
:10144000014B1870704700BFDC130020034BD868B5
:101450009B68C01A18BF0120704700BFDC13002032
:101460000246002330B5441812F8015BA2422B4417
:10147000FAD1435430BD0120704708B5FFF7FBFF98
:1014800008BD000008B54FF4E13008F0D5FAFFF7C9
:1014900067FFBDE808402422002101480BF00BBD86
:1014A000541D002000487047190C00200048704768
:1014B0001C0C0020004870471A0C002018B111B114
:1014C00089B208F0E9BA704773B5FFF7B3FF032894
:1014D0000FD8DFE800F040022D3B774B186808F08A
:1014E000A3F90A2805D900220220744B1A70FFF7CD
:1014F000A7FF734D734C08F0D9FA002856D008F0B6
:10150000C1FA2A68012A38D0022A3ED0002A5BD1CB
:1015100061282FD85F2804D8A0F15A03DBB2032B2F
:10152000E9D8012302222B60674B20701A70E2E792
:10153000624A13780133DBB2282B02D813700020E3
:10154000D5E700231370FFF763FFF8E7FFF760FFAD
:101550000020FFF775FF5D48FFF748FF01460028B0
:10156000C7D05A48FFF7AAFF08F01AF9524B186083
:101570000120BCE7AF28BED1D3E70223524A2B603B
:1015800013786070013B1370B5E72378612B0FD19E
:1015900063780D2B18D10A2816D1FFF74BFF0128CD
:1015A00002D10320FFF74CFF00232B6002B070BD77
:1015B000AF2B09D16378602B06D103232B60424BFC
:1015C000A0700130187096E73F49531C2B600B78D0
:1015D000A054013BDBB20B70002B8CD1194639486B
:1015E00010F8016B013133448A42DBB2F8D8A25CB7
:1015F0009A422AD10322364901A80BF0A9FC032103
:1016000001A808F049FA20462978FFF736FF00289C
:10161000CCD02378602B0AD8592B16D95A3B062BED
:1016200013D8DFE803F015193A3E12124200AF2B2F
:101630000BD1A678202E08D12649324626480BF039
:1016400087FC31462448FFF788FE00232B6052E7D1
:101650006278224B5A70F8E76378313B052BF4D857
:1016600001A252F823F000BF811600088916000875
:101670008F1600084B1600084B1600089516000838
:101680000122164B1A70E0E70222144BFAE70322FC
:10169000124BF7E70422114BF4E762780F4BDA7034
:1016A000D3E762780D4B9A70CFE76078431E5842BB
:1016B0005841FFF725FDC8E70C1D0020081D00203C
:1016C000041D0020301D0020001D0020541D00209E
:1016D000EADB0008331D0020101D0020190C00203B
:1016E0001FB5002301930293ADF80C30A12308220B
:1016F00001460DF105008DF804300BF029FC01A81E
:101700000921FFF7ADFE0A21FFF73CFE05B000BD41
:101710001FB504461022002168460BF0CCFBA22323
:101720000E2221460DF101008DF800300BF010FC67
:1017300068460F21FFF794FE1021FFF723FE04B047
:1017400010BD002307B50193A323022201460DF12A
:1017500005008DF804300BF0FBFB01A80321FFF717
:101760007FFE0421FFF70EFE03B000BD4FF0000323
:1017700007B58DF80630A4238DF8043003780221D4
:1017800001A88DF80530FFF76BFE0321FFF7FAFD86
:1017900003B000BD002307B50093ADF804308DF809
:1017A0000630A823052201460DF101008DF8003016
:1017B0000BF0CEFB68460621FFF752FE0721FFF72C
:1017C000E1FD03B000BD30B5054687B0152200210C
:1017D00068460BF070FB2846FEF78CFEC4B2122C54
:1017E00011D8A923224629460DF102008DF80030B8
:1017F0008DF801400BF0ACFBA11C6846FFF730FEF2
:101800001521FFF7BFFD07B030BD4FF0000307B54E
:101810008DF80630A6238DF80500022101A88DF869
:101820000430FFF71DFE0321FFF7ACFD03B000BD40
:1018300030B50C468FB005463122002101A80BF0CF
:101840003AFB2E2C11D8AB23224629460DF1060077
:101850008DF804308DF805400BF07AFBA11C01A82F
:10186000FFF7FEFDE11CFFF78DFD0FB030BD30B579
:101870000C468FB005463122002101A80BF01BFB5E
:101880002E2C11D8AC23224629460DF106008DF8E6
:1018900004308DF805400BF05BFBA11C01A8FFF79D
:1018A000DFFDE11CFFF76EFD0FB030BD1FB500235B
:1018B00004220293ADF80C30AD2340EA01400190C0
:1018C0000DEB02010DF109008DF808300BF040FB23
:1018D00002A80521FFF7C4FD0621FFF753FD05B05F
:1018E00000BD30B50C468BB005462422002101A86E
:1018F0000BF0E1FA202C12D146F2AF132246294612
:101900000DF10700ADF804308DF806400BF020FB18
:10191000232101A8FFF7A4FD2421FFF733FD0BB01D
:1019200030BD000010B50C46062842D8DFE800F0B4
:1019300004202B2D2F3809001120BDE81040FFF79F
:1019400064BF3020FFF761FF9CB30A211948FFF7FD
:101950006FFF0C211848FFF78AFF43F22D404EF22B
:10196000C241FFF7A3FF5220FFF74FFF5120E4E7EA
:101970003120FFF74AFFE4B15220FFF746FF0F483E
:10198000FFF721FFF2E73220F3E73320F1E73420BD
:10199000FFF73BFF6CB15220FFF737FF0848EFE736
:1019A0003520FFF732FF24B15220FFF72EFF054804
:1019B000E6E710BD98DD0008A2DD0008EEDB0008B8
:1019C000F4DB0008FEDB000808B5FFF73FFD20B997
:1019D0005320FFF71AFF012008BD0020FCE700009C
:1019E00010B5C4B20B2C03D0122C0ED0012000E095
:1019F0000220FFF75FFB2046FFF74AF80AF04BFB97
:101A00004FF0FF32024B5A6110BD0420F1E700BFD6
:101A1000001800400023054A0549C2E900130133BC
:101A2000102B02F10802F8D1704700BFF0450020EA
:101A3000E11900082DE9F041FFF7ECFF00254FF018
:101A40000108494E56F8041B4A1C0CD021F00F0720
:101A500001F00F0108FA01F421460522384624045A
:101A60000AF040FBBC610135EDB20F2DEAD106242E
:101A7000012630273D4D55F8040B431C2ED000F0B5
:101A80000F01202206FA01F120F00F000AF02AFBD4
:101A900000BF00BF00BF00BF00BF00BF00BF00BF4E
:101AA00000BF00BF00BF00BF00BF00BF00BF00BF3E
:101AB00000BF00BF00BF00BF00BF00BF00BF00BF2E
:101AC00087F3118855F8040C022200F00F0120F072
:101AD0000F000AF027FB002383F31188013C14F068
:101AE000FF04C8D1224B1B78002B27D122464FF48C
:101AF000006120480AF0F6FA00BF00BF00BF00BF37
:101B000000BF00BF00BF00BF00BF00BF00BF00BFDD
:101B100000BF00BF00BF00BF00BF00BF00BF00BFCD
:101B200000BF00BF00BF00BF302383F31188032232
:101B30000B2110480AF0F6FA84F31188302383F35E
:101B4000118801220C214FF080400AF0EBFA0023AB
:101B500083F31188062123200AF045F8FEF74AFF97
:101B6000BDE8F0410AF078BA0CDE000848DE000853
:101B70009A1D0020000800407047000008B508F0DA
:101B8000EDF90322214B22499A620C22DA62D1F844
:101B90009020204822F01802C1F8902000229A627A
:101BA000DA62D3F8402C03F5406342F480721A6481
:101BB0001A6C4FF4006142F002021A6401225A6367
:101BC000DA67DA6608225A615A695A615A6942F03C
:101BD00001025A619A6C42F4C0629A649A6CDA6C9F
:101BE00042F00802DA64DA6C9A6C42F480529A6429
:101BF0009A6CDA6C42F01002DA6440F28232DB6CEA
:101C00000AF070FAFFF7B8FF08BD00BF00000140FE
:101C100000040140000800404FF0E022136910B5B5
:101C200023F001031361234A234B01245A6100224C
:101C30000021930003F1604303F56143D3F80001F1
:101C4000012994BF002000F0010008B1C3F88041D1
:101C500001312029F2D10132082AE9D1174C6368F9
:101C600043F000736360164B1A6802F009021A60B1
:101C70001A6842F46C3242F004021A6040F2B33245
:101C80001A62104B43F001039847236943F00403A1
:101C9000236130BF0C4B43F0010398474FF0E02223
:101CA000236923F004032361136943F001031361E3
:101CB00010BD00BFFFFF07000018004000ED00E06E
:101CC00000000140E4DD0008B0DD0008FFF7A4BF1C
:101CD0000B8807B5A3F5FC43032B1FD8DFE803F0FF
:101CE00002213C57374A012013789278C3F342030C
:101CF00002F007020DF107018DF80730FEF7FCFD39
:101D00009DF80720042A09D81523D340D90705D503
:101D1000FEF7C2FF01221146FEF704FF002003B0C8
:101D200000BD284A012013789278C3F3420302F0E1
:101D300007020DF107018DF80730FEF7DDFD9DF874
:101D40000720042AEAD81523D340DA07E6D5FEF7A0
:101D5000A3FF01220221DFE71A4A012013789278BB
:101D6000C3F3420302F007020DF107018DF80730BB
:101D7000FEF7C2FD9DF80720042ACFD81523D340D3
:101D8000DB07CBD5FEF788FF01220321C4E70D4A0C
:101D9000012013789278C3F3420302F007020DF199
:101DA00007018DF80730FEF7A7FD9DF80730DA1E12
:101DB000012A01D9002BB1D1FEF76EFF01220621C5
:101DC000AAE700BF1044002010B50A4C238803F096
:101DD0000E0363F0FE032380A37823F01F0343F078
:101DE0000103A370FEF7BCFC2068BDE8104002F0C0
:101DF00091BB00BF1044002008B502F088FB044BE3
:101E0000186018B9BDE80840FFF7DEBF08BD00BF85
:101E10001044002010B5FFF7EFFF012220214FF002
:101E200080400AF05FF905F0FDFD18B14FF08043E6
:101E300020229A610122042126480AF053F9042342
:101E4000244A022193614FF40033A2F500629361AA
:101E5000214801220AF046F9002280214FF08040FB
:101E60000AF040F920224FF400414FF080400AF080
:101E700039F920224FF4004118480AF033F9174885
:101E800020224FF480410AF02DF9FEF747FE002290
:101E9000134C217811F00E0F14BF10460120C1F32E
:101EA0004201FEF73FFE07F07BFC0E4B186002F08C
:101EB000CBFB2078C0F30310FEF7D8FB05F08EFDB6
:101EC000094BC0F307221870C0F307405A7098708E
:101ED00010BD00BF000C004000040040000800409E
:101EE00010440020A41D00200C4400204FF40032B8
:101EF000014B9A61704700BF000400400222014B71
:101F00009A617047000400404FF080434FF4001284
:101F10009A6107F0F3BB10B505F084FD18B14FF0DE
:101F2000804320229A61FEF7B7FE0446FEF7B4FE16
:101F3000002201462046FEF7F5FD07F0E0FB07F022
:101F40002FFCBDE81040FEF7EBBC08B5FEF7A4FE81
:101F5000003818BF012008BD38B5144D144C28684E
:101F6000C8B107F061FC632815D97020FFF74DFC5C
:101F70005520FFF74AFC5720FFF747FC0022217845
:101F800011F00E0F0CBF01201046C1F34201FEF705
:101F9000C9FD00232B60A27821780020BDE83840DD
:101FA00002F00702C1F34201FEF718BDA41D002094
:101FB000104400206A4B37B51880A0F5FC400C4651
:101FC000042800F2CA80DFE800F0033B5E81A30032
:101FD000644A012013789278C3F3420302F00702A7
:101FE0000DF107018DF80730FEF786FC9DF80720FC
:101FF000042A22D81523D340D9071ED565795A4C17
:102000009DB1FEF749FE012805D0FEF745FE0022EE
:102010000121FEF787FD23785BB940F6B830504ABE
:10202000524906F023F9207003E0207806F02AF9DF
:10203000257007F0B5FBFEF773FC002003B030BD40
:10204000484A012013789278C3F3420302F0070252
:102050000DF107018DF80730FEF74EFC9DF80720C3
:10206000042AEAD81523D340DA07E6D565793E4C31
:10207000002DDAD0FEF710FE0228CCD0FEF70CFEC1
:1020800000220221C5E7374A012013789278C3F372
:10209000420302F007020DF107018DF80730FEF749
:1020A0002BFC9DF80720042AC7D81523D340DB0753
:1020B000C3D565792C4C002DB7D0FEF7EDFD032874
:1020C000A9D0FEF7E9FD00220321A2E7254A01205D
:1020D00013789278C3F3420302F007020DF107016F
:1020E0008DF80730FEF708FC9DF80730DA1E012A4C
:1020F00001D9002BA1D165791B4C002D95D0FEF79D
:10210000CBFD062887D0FEF7C7FD0022062180E719
:10211000144A012013789278C3F3420302F00702B5
:102120000DF107018DF80730FEF7E6FB9DF807304B
:10213000DA1E012A02D9002B7FF47FAF65790A4CA1
:10214000002D3FF472AFFEF7A7FD00283FF463AF08
:10215000FEF7A2FD002211465BE701206EE700BFFB
:10216000821D002010440020811D0020D11C000889
:10217000F8B52F4B04461A780D463AB14A792AB180
:102180000022114610461A7003F098FFFFF78AF9F3
:102190000378022B03D107F003FBFEF7C1FB47F6E0
:1021A00021039C421BD015D845F2212224F00203C2
:1021B000934228D16F7997B9FEF79EFA78B11D4EF8
:1021C000337823B1294620463770FEF79DFA012364
:1021D000337004E0A4F5FC43053B032B13D8FEF752
:1021E0008BFA10B3A4F5FC43053B032B1CD947F62F
:1021F00021039C4218D045F2212024F00204231A26
:102200005842584110E0FEF777FA0028E7D0A4F5CD
:10221000A443203B1F2BE2D96B79002BDFD029464A
:102220002046FEF771FA0020F8BD0120FCE700BF50
:102230009B1D0020BC3A002013B505F089FB012846
:102240003B4C13D105F0CAFBC0F307238DF8040003
:102250008DF80530C0F3074310F0FF008DF806300D
:1022600014D19DF80530C3B10323237023780133C3
:10227000DBB20B2B237020D10023237005F01AFB57
:1022800023782C4AD05C05F060FB22E0782810D03F
:1022900005D8282809D0502809D00923E5E7A02827
:1022A00009D0C828F9D10823DFE70423DDE7052397
:1022B000DBE70623D9E70723D7E70A2BDED105F0B2
:1022C0008DFBFF21C0F30742002005F084FB05F0E1
:1022D00009FB05F083FB2378C0F30742092B24D8C0
:1022E000DFE803F01D2323050C0F1215181BFF2137
:1022F000002002B0BDE8104005F06DBBFF21282092
:10230000F7E7FF215020F4E7FF217820F1E7FF21D4
:10231000A020EEE7FF21C820EBE70021E8E7FF203F
:1023200002B0BDE8104005F0FBBBC820F8E700BFD5
:10233000801D00201D0C002073B515465C0006466C
:10234000019107F02DFA074B03221860064B01A9F3
:102350001E60064B06481D60064B1C600AF0F8FD27
:1023600002B070BD941D0020881D0020901D00202B
:10237000841D00208C1D0020F7B55B4B5B4D0F4684
:102380002E7814461A70FEF787FCC6F34206864282
:1023900013D0FEF781FC2B7800F0070060F34303B5
:1023A0002B7003F00E032BB103289EBFAB7860F3B4
:1023B0000203AB70286802F0ADF8062F00F292809D
:1023C000DFE807F004192D4155697D004FF0FF3318
:1023D0004FF6FF728DF80630ADF8042001233CB1B2
:1023E000C8222C20019903B0BDE8F040FFF7A4BF3C
:1023F0004FF4FA72F5E7FF234CB100228DF8063056
:10240000ADF804200123C82230200199EBE78DF8B4
:1024100006304FF4FA720123ADF80440F4E7FF23CD
:102420004CB100228DF80630ADF804200123C822FB
:102430002F200199D7E78DF806304FF4FA72012367
:10244000ADF80440F4E7FF234CB100228DF80630CC
:10245000ADF804200123C8222E200199C3E78DF88E
:1024600006304FF4FA720123ADF80440F4E7FF237D
:102470004CB100228DF80630ADF804200123C822AB
:1024800029200199AFE78DF806304FF4FA72012345
:10249000ADF80440F4E7FF234CB100228DF806307C
:1024A000ADF804200123C8222A2001999BE78DF86A
:1024B00006304FF4FA720123ADF80440F4E74FF40C
:1024C0007F43ADF804303CB10023C8228DF80630BC
:1024D00001232D20019986E701234FF4FA728DF82C
:1024E0000640F6E703B0F0BD981D00201044002020
:1024F00010B5FEF7D7FF0378022B13D0FEF7CCFB05
:1025000018B90A4B1B78042B0AD0FEF7C5FB04460A
:10251000FEF7C2FB064B01461A782046FFF72CFF58
:10252000012010BD00F09DFF0020FAE73448002094
:10253000981D002070B5164C2068D0B107F074F9D2
:10254000144B154D1B68984208D2144B18682B6821
:1025500013F0010313D11A46194614E007F020F9CD
:102560002B68206033B900232360FFF7C1FF0028E8
:10257000EBD170BD013B2B60002BE6D1F3E708499E
:102580008B784A780978BDE8704003F02BBD00BF16
:10259000941D0020901D00208C1D0020881D00200F
:1025A000841D0020F7B50C4C1D46237806461746BF
:1025B000019173B90123237007F0F2F86D00606098
:1025C000032201A904F11100A760E56026740AF056
:1025D000BFFC03B0F0BD00BFA03A002010B5124C04
:1025E0002378FBB1606807F01FF9A36898420ED307
:1025F00007F0D6F8E36860602BB9237063600023AE
:102600001A46194609E0013BE360002BF5D0E36868
:10261000DB07F4D5E37C627CA17C207CBDE8104024
:1026200003F0E0BC10BD00BFA03A0020244B13B55E
:102630001C78A4B1234B1B7823B10022224B1A60D3
:1026400002B010BD204A1360204A10780128F7D14B
:10265000FF22194602B0BDE8104003F0C3BCFEF7EC
:1026600025FF03780F2BE8D8184B1B78012B09D1D5
:10267000FF228DF80640ADF804201846FA22019991
:10268000FFF790FFFEF712FF0378002BD8D10E4C16
:10269000206820B907F084F820600028D0D007F027
:1026A000C3F84EF660239842CAD900230120236064
:1026B000074B187002B0BDE81040FEF71BBD00BF0D
:1026C000A11D0020A01D0020781D0020991D0020C4
:1026D0009A1D00202DE9F3414FF0180C019190460E
:1026E0001D460021064611480CFB01F3C75C1C186F
:1026F000BFB90122C25407F053F86D006060032295
:1027000001A904F11100C4F80880E56026740AF0FC
:102710001FFCFF2E0ABF064B6761636102B0BDE874
:10272000F08101316329DFD1F8E700BFC43A00200E
:10273000B52800084FF080431A6973B51B69454CF2
:102740004548C2F3C011217003F40041C3F3C03304
:102750000370100667D500290CBF642566253F4E1F
:102760003068002861D107F01BF830602846FFF779
:102770004CF85320FFF749F82278394B002A5AD0F9
:102780004FF48022374C9A61206807F04DF840F6EC
:10279000B83398422BD923684BB3334D0026AB781E
:1027A000ADF80060C3F3001282F0010262F304137B
:1027B000AB7082238DF80230009802F00FFF2B4B94
:1027C000C0F30721C0F307428DF805008DF80620FD
:1027D0008DF80410187059709A70FF200123FA22A6
:1027E0000199FFF777FF286801F094FE2660204BDF
:1027F000204D1A69287812041FD51C6914F48044EE
:102800001BD100F009FE022822D0287800F004FE37
:1028100003281DD0022000F062FD002002B0BDE8B8
:10282000704001F0C2B9652599E706F0FDFFB0F5EB
:102830007A7F98D8A0E70422A4E700F0EDFD0228F3
:1028400001D10020E7E7287800F0E6FD0328F8D062
:1028500002B070BDA11D0020A01D00207C1D002025
:10286000000C0040C03A002010440020B83A00207C
:1028700000080040D91D0020002382B0ADF80430CC
:102880008DF80630FA220123FF20019902B0FFF7EC
:1028900021BF41F2100307B5ADF8043010238DF8C5
:1028A0000630FA220323FF200199FFF713FF0120CE
:1028B00003B000BD1822124B82B002FB0030837CB3
:1028C0006E2B0ED1427CC2B9C27CB2B9ADF80430D5
:1028D0008DF806200123FA22FF20019902B0FFF7AC
:1028E000F9BE53B9437C6E2B07D1C37C2BB9ADF82D
:1028F00004306F238DF80630ECE702B0704700BF5C
:10290000C43A0020094A0023114610B5147C8442C1
:1029100006D1182253430022C818C260CA5410BD01
:102920000133632B02F11802F0D1F8E7C43A00201A
:1029300073B505460C46FFF71BFC002800F0D2805B
:1029400021462846FFF736FB0646002800F0CA80DD
:1029500047F62A039D4200F29D8047F620039D42E0
:1029600022D8522D50D84E2D3AD8162D00F0818203
:1029700041D8042D00F07182072D00F0828230468C
:1029800002B070BDA5F5FC45063D092D00F255814C
:10299000DFE815F06D0178018601BF001E023502E7
:1029A000A300A50297022702A5F5F045213D092DB8
:1029B000E5D801A353F825F0E12C00087F29000891
:1029C0004D2D00087F290008C32B0008D92B0008D3
:1029D000672B0008872B00082B2B0008432B0008CF
:1029E000AC4B503D9B78022D00F25F82DFE815F082
:1029F0005102570263021A2DC1D1A64B9B781B07C7
:102A0000BDD5522063792FE2E72D00F0C48112D8A2
:102A1000E32D00F0A381E42D00F05682C12DAED14C
:102A20006379E020002B00F06E8200F067FD5220F9
:102A300000F064FD56E045F202239D4200F0D8808C
:102A400047F213039D424FD0B5F5A44F97D1637958
:102A5000002B47D000213620FFF754FF4FF6FF73BD
:102A6000ADF804304FF0FF338B4C8DF80630FA226E
:102A7000032335200199FFF72DFE207800F0CCFCD0
:102A8000022840F0AE80002000F029FC002001F078
:102A90008CF827E047F60F639D423FF670AF47F68C
:102AA00004639D423FF66EAFB5F5F84F0CD047F684
:102AB00003439D427FF463AF6379784C002B32D09F
:102AC00006F06EFE20600DE06379002B3FF457AFF7
:102AD00001F0F3FC06F0C0FE51E7637913B1622008
:102AE000FEF793FE00264AE7FDF706FE0028F9D11F
:102AF0006379002B3FF443AF4FF4DC438DF80600BD
:102B0000ADF80430FA220123FF200199FFF7E2FD1E
:102B100035E7FDF7F1FD0028E4D16379002BE1D022
:102B2000FFF78AFBDEE72360DCE76379002B3FF4E5
:102B300026AF04F0FDFFFF287FF421AFFFF79CFED6
:102B40001DE76379002B3FF41AAF04F0F1FF66280C
:102B5000F4D804F0EDFF332801D0FFF78DFE3320C9
:102B600004F0DEFFBEE76379002B3FF408AF04F00A
:102B7000A1FE4FF0804320229A6104F053FFFF280A
:102B80003FF4FDAEDAE76379002B3FF4F8AE04F0D2
:102B900049FF1A2805D904F045FF00283FF4EFAE9D
:102BA000CCE74FF080434FF4001200249A610023D9
:102BB00020461A461946013403F014FA532CF6D174
:102BC000E9E76379002B8DD00120FDF719FEFF287E
:102BD00088D0FFF751FE85E76379002B82D0002073
:102BE000F3E7207800F018FC03287FF47BAF4AE776
:102BF0006379002B3FF476AF00213520FFF782FE8A
:102C00004FF6FF73ADF804304FF0FF33224C8DF8D0
:102C10000630FA22032336200199FFF75BFD207866
:102C200000F0FAFB02283FF45DAF207800F0F4FBDF
:102C300003283FF457AF022026E76379002B3FF4C7
:102C400051AF0020134C237823F0F0032370FDF7DD
:102C500001FD2078C0F30310FDF760FC206801F04F
:102C600059FC2078C0F30310FDF716FD3AE76379AD
:102C7000002B3FF437AF0120064C237860F3071395
:102C80002370E4E76379002B3FF42CAF014C022062
:102C90002378F3E710440020D91D00209C1D00205C
:102CA0006379002B3FF41EAF04F052FE2D287FF411
:102CB00019AFFDF721FD0446954B1878C0F30310BA
:102CC0005CB9FDF7FFFC934B1C7006F069FD2246D2
:102CD00021462046FDF79EFC04E7FDF71FFC01E7B7
:102CE0006379002B3FF4FEAEFFF7C6FD04F030FE23
:102CF0002D28894D23D1FDF7FFFC854C60B120784C
:102D0000C0F30310FDF7A6FC2078C0F30310FDF715
:102D100005FC00227F4B1A706078FF2808BF0D2049
:102D200004F013FE206801F0F5FB04F057FEC0F339
:102D300007232870C0F307406B70A870D2E6774C69
:102D40002046FDF735FD54F8010CECE76379002BC4
:102D50003FF4C8AE0120FDF753FDC3E6704D28785F
:102D600000F05AFB02280FD16E4B1B78DB067FF573
:102D700006AEFDF7C1FC00287FF401AEE3206379C5
:102D80001BB300F033FAFAE5287800F045FB03287E
:102D90007FF4F5ADE8E7624D287800F03DFB0228AE
:102DA0000CD1604B1B78DD067FF5E9ADFDF7A4FC87
:102DB00000287FF4E4ADE7206379E1E7287800F0AC
:102DC0002BFB03287FF4DBADEBE700F025FAD6E51B
:102DD0004F4B554A1B7813F00E0318BF63791370DD
:102DE00080E66279002A7FF47DAE504B197811B9E4
:102DF00001221A7076E601297FF474AEF9E763794F
:102E0000002B3FF46FAE424CA378C3F3C00282F0B4
:102E1000010262F3C303A3700023ADF800308223E4
:102E20008DF80230009802F0D9FB414BC0F3072126
:102E3000C0F307428DF805008DF806208DF80410C8
:102E4000187059709A70FF200123FA220199FFF738
:102E500041FC206801F05EFB44E62D4B9B7818078F
:102E60007FF58DAD50206379002B35D000F0BEF991
:102E700038E6274B9B7819077FF581AD51206379A0
:102E8000F2E7234B9B781A077FF579AD4F206379E2
:102E9000EAE71D077FF573AD04206379E4E71807BF
:102EA0007FF56DAD16206379DEE719077FF567AD15
:102EB00007206379D8E71A077FF561AD1A20637997
:102EC000D2E763791B4CF9E5114B9B78DB067FF564
:102ED00056AD65206379C7E700F09EF902E6637995
:102EE00053B1E32000F00AFB2C2000F007FB4FF465
:102EF000FA6007F04EFEF5E52C2000F047FBE320DA
:102F000000F044FBEEE500F041FB5220F8E700BF83
:102F100010440020BC3A00200C4400201144002042
:102F2000D91D0020204400209C3A0020991D00203B
:102F3000B83A0020C03A0020F8B500252E461D4CB6
:102F4000237873B1606806F06FFCA368984212D3CF
:102F500006F026FCE36860604BB963692670666022
:102F6000C3B90135632D04F11804E9D1F8BD013B63
:102F7000E360002BF1D0E368207C13F0010311D053
:102F8000FF28A77C617CE37C07D11A46384603F012
:102F900095F8E6E7E8B29847E3E70A46394603F0D2
:102FA00021F8DEE7FF281A4602D119461846EEE757
:102FB0001946F4E7C43A002010B500240C4B1C70ED
:102FC00001F002FB02F0DEFF01F09AFA094B1880D3
:102FD00064F3C7101870188801F095FAFFF759FCD0
:102FE00006F0DEFBFDF79CFCBDE81040FEF712BFCB
:102FF0002C0C002020440020354B37B51D7895B1AE
:10300000822300248DF80630ADF80440019802F0C8
:10301000E5FAC0F30742C1B2C0F3072003F04EF84F
:10302000204603B030BD2B4C206840B106F0FCFBBD
:1030300040F6B833984202D9FFF7BEFF256006F08C
:10304000D5F9820705D5202334201A46194602F007
:10305000C9FF214C207800F0DFF902280ED020783B
:1030600000F0DAF9032809D01C4B1B78DB0605D5E4
:10307000202350201A46194602F0B4FF184CFFF7DF
:1030800059FA237863B9174D286806F0CDFBB0F5DF
:10309000FA6F16D90123237006F082FB286010E036
:1030A000114B1B786BB9FDF727FB38B9FFF796FA80
:1030B000FFF7BCFA06F074FB0A4B18602378002B6C
:1030C000E1D0FFF739FFFDF7D5FB0120A9E700BFED
:1030D0009B1D00209C1D0020D91D002020440020A5
:1030E0002C0C0020280C0020A21D002008B50C4B41
:1030F00000209A78197802F00702C1F34201FDF727
:103100006DFC04F08FFC4FF0804328B120229A61BF
:103110000422044B9A6108BD4FF40012F7E700BF88
:1031200010440020000C004004280DD805290BD8BD
:103130000E2A09D85A23C1EB011103FB0011034BDE
:10314000114433F8110070470120704744E1000832
:10315000042808D839B9054B82F0010202EB40027D
:1031600033F8120070470120704700BF60DE00088E
:10317000A0F58073B3F5F85F10B52DD210F4805F21
:1031800000F40074C0F3002300F4806100F40060D8
:1031900013D01B0143F02002002C18BF134643F04C
:1031A0004002D2B2002918BF134663F07F02D2B2A8
:1031B000002818BF1346184610BD43F00202D2B2D1
:1031C000002C18BF134643F00402D2B2002918BFE6
:1031D000134643F00802EAE70023ECE710B50C467B
:1031E000FFF7C6FF2346BDE810401847A0F1E003F3
:1031F000072B10B5044600D940B920460449FFF713
:10320000EDFFE0B2BDE8104000F078B90149F6E703
:1032100049360008613A000810B50446C0B200F013
:10322000B5F9A4F1E003072B00D92CB903492046D6
:10323000BDE81040FFF7D2BF0149F8E75B36000850
:10324000733A00080120704708B5FFF7FBFF08BD7F
:10325000704708B5FFF7FCFF08BD000013B5104B21
:10326000CDE900011B78B3B99DF8053073B16AB19F
:1032700000F046FD04460146009800F005FD20469A
:10328000009902B0BDE8104001F088BB009800F042
:1032900019FD0446F3E7009800F032FD0099F0E7CD
:1032A000B01D0020034610B400885C880A4640EA3E
:1032B0000440998810BCFFF7D1BF10B50446012126
:1032C000FFF7F0FF2146FFF7BFFF10BD10B5044622
:1032D0000021FFF7E7FF2146FFF7BBFF10BD10B548
:1032E00001248440E0B201F007F9E0B2BDE81040EB
:1032F00000F02FBC0120704708B5FFF7FBFF08BDA9
:1033000010B5044600F0D6FB2046FFF7F5FFBDE8F8
:10331000104046F2A81007F03CBC08B50120FFF7AA
:10332000EFFFBDE8084006F097BA08B50020FFF7A8
:10333000E7FFBDE8084006F0B5BA38B501210546FB
:10334000FFF7B0FF2946044605F0D6FE002840D01E
:1033500029462046FFF7ECFAD8B32946204605F067
:10336000D7FDB0B32946204605F03AF988B329467F
:10337000204605F00FF960B32946204604F044FCCE
:1033800038B32946204605F00FFE10B36B797BB1A8
:1033900047F65A439C4223D00ED847F601439C423D
:1033A0001BD047F603439C4215D0B4F5F84F0ED01E
:1033B0002846FDF75FFE0DE047F65B439C4212D0C6
:1033C00047F65C439C42F3D101F066F8F0E7FFF763
:1033D000A4FF002038BD01F070F8FFF7A6FFF8E762
:1033E00001F064F8E4E701F064F8E1E708B5FEF7FE
:1033F0008BFD04F05BF900F02FF8BDE808400120D8
:1034000004F010BA08B500F02CF8002004F00AFA15
:10341000BDE80840FEF77FBD020906BF134602461D
:10342000042391081CBF0A46023303EB5200C0B2CA
:10343000704701207047704738B50546FFF7F9FF20
:10344000044610B12846FFF7F6FF204638BD704706
:1034500008B5FFF7F1FF08BD08B50020FFF7F8FF3A
:1034600008BD08B505F0BAFFFFF7F2FF08BD000080
:1034700010B505F0B3FF074B04461A78824207D017
:10348000187006F08DF9044B18602046FFF7E0FF36
:1034900010BD00BFA81D0020AC1D00201FB5CDE948
:1034A00000019DF805300BB100F0F6FEDDE90001EA
:1034B0000023ADF80C10C9B2ADF80E30029029B956
:1034C000DDE9020100F046FE04B010BD02A8FFF7DE
:1034D000F4FE0028F4D1F7E70379012B02D100882C
:1034E00000F030BC704708B529B105F0D7F9BDE848
:1034F000084005F0B1BA05F023FAF8E710B5044624
:10350000002840D0031FDBB2A02B0ED805F0ECFF43
:1035100020B1204606F06EF800F056FF204606F077
:103520004FF8BDE8104000F04FBF00F12003DBB2C0
:10353000072B07D800F007040120A040C0B200F01C
:1035400085FEEEE700F15B03DBB2022B05D8BDE898
:103550001040243880B205F069BF00F15803DBB297
:103560001A2B06D8BDE81040074A32F8130005F0C0
:1035700077BF3334E4B2122C05D805F08FF9BDE8DB
:10358000104005F069BA10BDC8E4000808B503464C
:10359000A0B3021FD2B2A02A05D806F02BF8BDE8CE
:1035A000084000F011BF00F12002D2B2072A07D86C
:1035B00000F0070301209840C0B200F04FFEEEE794
:1035C00000F15B02D2B2022A04D8BDE80840002014
:1035D00005F02CBF00F15802D2B21A2A04D8BDE877
:1035E0000840002005F03CBF3333DBB2122B05D876
:1035F00005F0A6F9BDE8084005F02EBA08BD0000A8
:1036000038B50C460546FFF779FF8CB140F2E7303C
:103610000021DFF820C04FF47A720023E4FB0C0194
:10362000FCF7E4FD07F0B5FA2846FFF7AFFF38BD19
:103630000120F7E7A086010008B539280CBF50210A
:103640000021FFF7DDFF08BD08B528B100F0FEFD41
:10365000BDE8084000F0B8BE08BD08B528B100F0CC
:10366000FDFDBDE8084000F0AFBE08BD2DE9F84300
:10367000877981460C46457900F0D8FDC7F30317DA
:10368000064608B32E46FDB1C4F3072303F0F0024B
:10369000402A0CD0E1B201F12002D2B2072A25D98A
:1036A00003F0E003202B02D101291FD907B3A54B5A
:1036B0005E7816F0040607D0022000F0BDFE00F090
:1036C000B5FD80F00106F6B2C4F303330B2B3ED8F0
:1036D000DFE813F01000100055005500B000C700DF
:1036E0003D003D00CC0026013A013A010026EBE7FF
:1036F0003E46E9E7C4F30327C4F307223B010F2A40
:1037000088BF1F46E4B285B157B104F12003DBB294
:10371000072B384600D92CB900F098FD00F054FE74
:1037200020464DE000F0A8FDF8E72046FFF72EFF09
:103730006FB104F12003DBB2072B384600D914B96E
:1037400000F08CFD01E000F09FFD00F03DFE002E3A
:1037500000F0528100F062FD10F0010040F04C8159
:1037600089F8050000F054FD00F026FA484600F004
:1037700059F900F04DFDBDE8F84300F029BAC4F353
:103780000328C4F3072303F0F0034FEA0812E4B25E
:10379000202B18BF90462CB1012C34D0002D3CD0EA
:1037A000DFB1BDE7674B5B78590714D45DB1B8F161
:1037B000000F04D0404600F049FD00F005FE002057
:1037C000FFF79CFEC3E72846FFF7E0FEB8F1000FC5
:1037D000BDD04046B4E755B11FB94046FFF734FFAE
:1037E000B5E7012FB3D1404600F076FDAFE7002FDB
:1037F000ADD14046FFF731FF404600F07BFD40462B
:1038000000F056FDA3E715B1052FA0D8E5E7042F7A
:103810009DD84046FFF721FF99E7002FF9D0392CBA
:103820000CBF4FF4FA50012007F0B3F92046FFF720
:10383000ADFE8CE714F4406FC4F3812307D0012B55
:1038400085D165B1C4F3090005F00AFE7FE725B113
:10385000C4F3090005F0EAFD79E72846FAE72846AF
:10386000F2E72946E0B2FFF73EFE70E714F4407F2E
:1038700029D1D5B90F23C4F342129200D2B293409A
:10388000DB4314F01000DBB218BF184604F00F0140
:103890009140C4F381240843022CC0B20DD0032C04
:1038A0000ED0012C06D000F05FF905F097FDFFF770
:1038B000CFFD4CE700F050F9F7E700F05DF9F4E7D1
:1038C00000F047F9F1E7C4F30122EDB1D207ECD5DE
:1038D0000F23C4F342129200D2B29340DB4314F0A0
:1038E0001000DBB218BF184604F00F019140C4F37A
:1038F00081240843022CC0B20CD0032C0DD0012C23
:1039000005D000F083F9D0E7012ACED9E0E700F036
:1039100075F9CAE700F082F9C7E700F03BF9C4E7A0
:10392000E7B2C4F3032435B1204600F045F9384628
:10393000FFF78AFEB9E73846FFF78FFE204600F012
:1039400047F9B2E7204400205FFA84F8A8F1F003B9
:10395000042B38D8DFE803F003210D141D0035B126
:10396000042FA2D8C4F3042000F03CF99DE7052FF2
:10397000F7E7C4F30420002DE1D100F01DF994E72E
:1039800025B1C4F3042000F010F98EE700F00AF925
:103990008BE71A4B5B785B0704D4C4F30420002D3B
:1039A000CDD0EAE72DB10321C4F3042000F022FDBD
:1039B0007BE7012000F040FD012F7FF676AF02206B
:1039C00000F03AFD71E73DB11FB14046FFF796FDAB
:1039D0006BE7C4F30420D0E75FB1B8F1390F0CBF37
:1039E0004FF4FA50012007F0D4F84046FFF7CEFD1F
:1039F0005BE7C4F30420A2E7BDE8F883204400207D
:103A000038B501880446407900F0A8F9054600F071
:103A10000DF900F09DF829462046BDE83840FFF733
:103A200025BE0000037910B50446B3B1FFF785FC4D
:103A300068B900F0FBFB80B1637973B1074B5B7829
:103A40005B070AD5BDE81040022000F0F5BC204617
:103A5000FFF7D6FF2046FFF739FC10BD20440020B9
:103A600008B528B100F008FCBDE8084000F0ACBC87
:103A700008BD08B528B100F007FCBDE8084000F01B
:103A8000A3BC08BD08B5002005F0D0FC002005F05F
:103A9000E7FC00F001FC00F097FC04F0FBFFBDE840
:103AA000084004F0D9BF08B505F0BEFDBDE80840E8
:103AB000FFF7E8BF08B500F0D9FBBDE80840FFF705
:103AC000F2BFC0F30333062BC2B213D094BF0E3340
:103AD000063303F00F03012B13D8F02A13D004D8B8
:103AE000E72A8CBF002001207047A2F1F40358425E
:103AF00058417047F12A18BFE72A94BF01200020DF
:103B00007047002070470120704708B5037933B132
:103B1000008800F017F9BDE80840FFF7D2BF18464B
:103B200008BD82B0CDE9000102B0704782B0CDE996
:103B3000000102B07047704708B5FFF7FCFF08BDF1
:103B400008B5FFF7F9FF014B187008BDD91D00201B
:103B50007047FFF7F5BF0000024B1B781843FFF7D3
:103B6000EFBF00BFD91D0020024B1B781840FFF7A4
:103B7000E7BF00BFD91D0020024B1B785840FFF75C
:103B8000DFBF00BFD91D0020704708B5FFF7FCFF5D
:103B900008BD000008B5FFF7F8FF014B187008BD1D
:103BA000D81D00200020FFF7F5BF012303FA00F025
:103BB000C0B2FFF7EFBF0000012303FA00F0034B90
:103BC0001B781843C0B2FFF7E5BF00BFD81D002027
:103BD0000123034A8340107820EA0300FFF7DABF8D
:103BE000D81D0020012303FA00F0034B1B78584036
:103BF000C0B2FFF7CFBF00BFD81D0020024B1B781B
:103C00001843FFF7C7BF00BFD81D0020024B1B7829
:103C10001840FFF7BFBF00BFD81D0020024B1B7824
:103C20005840FFF7B7BF00BFD81D0020704701F014
:103C30000703C90801EB410130B501250A44002101
:103C40009D40013A12F8014F20FA01F343F30003BB
:103C500063402B4001315C4003291470F2D130BD28
:103C6000002210B500F00704C00800EB400001443A
:103C700010468B5CE34003F001039340013218438C
:103C8000032AC0B2F5D110BD0246C0F30723052BAD
:103C9000084682B0D1B209D80E290DD8C3EB031360
:103CA0001944064A89B202B0FFF7C1BF0433DBB240
:103CB000012B01D8024AF6E702B07047B41D00207C
:103CC000B11D0020C0F30723052B82B0C0B209D874
:103CD0000E280DD8C3EB03131844074980B202B075
:103CE000FFF7BEBF0433DBB2012B01D80349F6E76F
:103CF000002002B0704700BFB41D0020B11D00209D
:103D000073B504240D4BADF804001D780C4B1B78E3
:103D10001D43EDB245FA04F3DB0705D4013CF9D2AB
:103D20000026304602B070BDE6B23046019900F080
:103D300052FE80B20128F1D0F3E700BFD81D002069
:103D4000D91D002007B5ADF804000198FFF7D8FF92
:103D5000019903B05DF804EB00F03DBE13B5104BC4
:103D6000ADF804101B782BB1019802B0BDE81040EB
:103D7000FFF7E8BF70B10198FFF7C2FF04460146A4
:103D80000198FFF781FF2046019902B0BDE810407D
:103D900000F021BE0198FFF795FF0446F3E700BF4E
:103DA000B01D002010B5012404FA02F204FA01F15A
:103DB0001143CAB20140914204FA03F406BF204302
:103DC000C0B2A04310BD000008B513460A46014624
:103DD00003480078FFF7E6FFBDE80840FFF7DABECA
:103DE000D81D0020F8B50C4B0C4E1C780C4D3378C8
:103DF000A34200D1F8BD05EBC40335F834005F8859
:103E00009A88D98840EA074042EA01410134FFF725
:103E10008DFE04F00704EAE7DA1D0020DB1D002018
:103E2000DC1D002010B4064B5C8818889A88D9885D
:103E300040EA044042EA014110BCFFF777BE00BFF0
:103E40001C1E00201C49F8B58B790F2B0AD84B7922
:103E500043B11A4B1A4A1B7815784E780F78194CD3
:103E6000AB4200D1F8BD04EBC300027902B3427843
:103E7000B2421DD114F83320BA4219D14279BAB9ED
:103E80004288B1F802C0A2EB0C0292B2C72A0FD846
:103E900001228B7962F307138B71837962F3071325
:103EA00083710548FFF7BEFDBDE8F840FFF79ABFF4
:103EB000013303F00703D3E71C1E0020DA1D0020A6
:103EC000DB1D0020DC1D0020F0B50D4B0D4C1B78D8
:103ED00026780D4CB34201D10020F0BD04EBC305A0
:103EE0006F788F4206D114F83370874202D16D7912
:103EF000954203D1013303F00703EBE70120ECE720
:103F0000DA1D0020DB1D0020DC1D00202DE9FF470D
:103F100005468F4C06220146684609F019F82379B8
:103F20006F792A79C3B9002A00F0D480002F00F0FD
:103F300006812846FFF7E9FD002800F000810822ED
:103F40002946204609F004F82046FFF7C5FAFFF796
:103F500079FFFFF767FFBDE0B5F802A063886679D7
:103F6000AAEB030395F800809BB2002E00F0B4800A
:103F7000C72B00F28A80002A00F0AC80A379627817
:103F80000F2B697851D8914214D12278424511D132
:103F9000002F45D1012262F30713A371FFF742FFFF
:103FA0002046FFF73FFDA379AB710024204604B003
:103FB000BDE8F087A7BB3A464046FFF785FF40467D
:103FC000FFF782FF04460028EFD10098FFF7BAFE02
:103FD000C0F30332032AC3B208D8012A10D910F45F
:103FE000706F12D0AA790F2A0FD8DFE7063202F0DD
:103FF0000F02012A0ED92846FFF714FD3446D5E7F3
:1040000010F4706F01D0002BD0D02033DBB2072B1F
:10401000CCD9F0E7EF2BC9D90F33DBB2022BF7E78E
:10402000A37943F00103A371BFE791420DD1227838
:1040300042450AD14FB92846AB71FFF7F3FC08227D
:104040002946204608F084FF83E72846FFF75DFDF8
:10405000002874D0002F72D0A3791F2B0FD922888B
:1040600002A8ADF808202279ADF80AA08DF80C203E
:1040700000228DF80E308DF80D20FFF7D3FC0822BA
:104080002946334808F064FF61E7A3790F2B0ED867
:10409000DDE90001FFF745FD2046FFF7C3FC0822DC
:1040A0000021204608F007FFFFF7BCFE7DE78AB13C
:1040B00061786A789142C8D122784245C5D1002FF3
:1040C000C3D12846AB71FFF7ADFC08223946204624
:1040D00008F0F1FE012469E7C72B34D8002AF9D093
:1040E0006FB362786B789A4220D1237843451DD113
:1040F000A379DA0714D40F2B12D9AB7103F0F003B4
:10410000F02B06D0AB79C3F30312013262F307132D
:10411000AB712846FFF786FC082229460C4891E738
:10412000082229460A4808F013FFD3E72846FFF77C
:10413000ECFC0028A3D1A37943F00103A371284626
:10414000FFF770FCC6E7DDE90001FFF7EAFCA6E730
:104150001C1E0020F0B585B0CDE900016846FFF7D0
:10416000D5FE274E07469DF80430264D58B11BB1A9
:10417000DDE90001FFF7DAFC234C2878337883422D
:1041800024D105B0F0BDDDE90001CDE90201002B2D
:10419000F2D033782A785C1C04F0070494420BD0E8
:1041A000082219480DEB020100EBC30008F0D0FE15
:1041B0003470FFF717FEDFE7FFF77CFC0822394673
:1041C000124837702F7008F076FED5E704EBC00078
:1041D000FFF79CFE0028D4D02B7834F8330004EB92
:1041E000C3035F889A88D98840EA074042EA0141C0
:1041F000FFF79CFC2B78013303F007032B70BCE71F
:10420000DB1D0020DA1D0020DC1D00201C1E00200C
:10421000014B1878C00870474C1E0020024B1878DC
:1042200000F00700704700BF4C1E0020034B1878B9
:1042300010F0070018BF0120704700BF4C1E00207F
:10424000014B1878704700BF781E0020024B1A7887
:1042500010431870704700BF781E0020024A137880
:1042600023EA000313707047781E00200022014BE0
:104270001A707047781E0020024B1A78104318708D
:10428000704700BF771E0020024A137823EA00031C
:1042900013707047771E00200022014B1A70704780
:1042A000771E0020704708B5FFF7FCFF08BD00002F
:1042B00008B5054A1378034204D023EA00001070C1
:1042C000FFF7F1FF08BD00BF4D1E0020704708B585
:1042D000FFF7FCFF08BD000010B5054A137830EA6F
:1042E000030403D003431370FFF7F1FF10BD00BFB9
:1042F0004E1E002008B5054A1378034204D023EA75
:1043000000001070FFF7E3FF08BD00BF4E1E002045
:1043100008B5044B1A781AB100201870FFF7D7FFC0
:1043200008BD00BF4E1E002010B5084B1C78084B7E
:104330001B781C43074BE4B21B782BB11C4305F0E0
:10434000ABF808B1FFF7E4FF204610BD781E00204F
:10435000771E00204E1E002038B50B4C2568FFF755
:10436000E3FF2870246808222046084908F07AFDF7
:1043700048B121460822054808F0EAFD2046BDE87C
:10438000384005F037B838BD840D0020441E0020A9
:1043900038B50B4C2568FFF7C7FF687024682022EA
:1043A0002046084908F05EFD48B121462022054814
:1043B00008F0CEFD2046BDE8384005F023B838BDF2
:1043C000800D0020241E0020054B1B7833B1054BC7
:1043D00093F90030002B01DAFFF7DABFFFF7BCBF1B
:1043E000A80D002020440020704708B5FFF7FCFF0F
:1043F00008BD0000094A10B5527853070AD5084C89
:1044000041EAC0012170FFF7D7FB2078C008FFF711
:10441000ECFF10BDBDE81040FFF7CEBB20440020EC
:104420004C1E0020002008B5024B1870FFF7DDFF7E
:1044300008BD00BF4C1E002008B50A4A137823EAC5
:104440000000107042070CD198420AD0064B5B78EE
:104450005B0706D5C008FFF7BBFBBDE80840FFF7C8
:10446000E1BF08BD4C1E002020440020094A08B5C9
:104470005378C3F3800181420AD060F38203537002
:10448000108800F040F8BDE808400220FFF7D4BFD4
:1044900008BD00BF20440020034B587880F0040082
:1044A000C0F38000FFF7E2BF204400200120FFF7A7
:1044B000DDBF0020FFF7DABF704708B5002000F02D
:1044C00059FDBDE808404FF6FF71002000F034BDF3
:1044D00008B5002000F0CEFC4FF6E563984203D10A
:1044E000BDE8084004F0A0BD002008BD022000F097
:1044F000B3BC032000F0B0BC0146032000F00EBDA9
:10450000042000F0B7BC0146042000F015BD0F20C8
:1045100000F0BEBC01460F2000F01CBD08B5002015
:10452000FFF7F8FFFFF7C8FF08BD01460E2000F0B7
:10453000F5BC000007B5002000F01CFD4FF6E5615A
:10454000002000F0F9FC0021022000F0E7FC01212E
:104550001C4B0320197000F0E1FC4FF4A051042023
:1045600000F0EAFC0021062000F0D8FC0021072022
:1045700000F0D4FC0021082000F0ECFC00212320F6
:1045800000F0CCFC00210C2000F0C8FC00210D2024
:1045900000F0C4FC002300226846CDE90023172167
:1045A000082200F0A1FC00211F2000F0D3FCFCF742
:1045B000D7F8002004F050FD04F07DFDFFF7AEFFBA
:1045C00003B000BDD91D0020FFF7B4BF73B505F0DF
:1045D0001FF90A4C0546238883420DD00026ADF80A
:1045E000006005F015F9ADF80460ADF80200DDE9F2
:1045F0000001FEF753FF258002B070BD7A1E002037
:10460000014B186805F010B9841E002008B505F0AC
:10461000C7F8024B1860024B186008BD841E0020CA
:10462000801E002008B505F0BBF8024B1860024B55
:10463000186008BD841E00207C1E00207047704753
:1046400008B5FFF7FCFF08BD704701207047000068
:1046500008B5054800F0B4FA00F08AFCFFF7EEFF59
:10466000FFF7EEFF08BD00BFB94B000801207047FF
:1046700008B5FFF7FBFF08BD08B5FCF73BFCFEF7EC
:1046800059F808BD08B5FFF723FF08B9FFF79CFFED
:10469000FFF72CFF084B1870FFF732FF074B18800D
:1046A00003F056FDFFF725FFFFF753FA044B187888
:1046B000BDE80840FFF769BA881E002020440020AA
:1046C000D81D002008B505F069F804F004FD03F0DA
:1046D00035FB00F02DFBFFF7D5FFFEF7B8FE03F02A
:1046E0007BF8054B1A7842F080021A701888FFF7A1
:1046F0000AFFFDF78FFB08BD204400202DE9F04F95
:1047000085B0FFF7A2FF78B9FFF760FF02F0CEFF98
:1047100003F06AFB08B1FFF785FF04F0E3F905B089
:10472000BDE8F04FFEF7A4BE2E4F00F019FB3D464A
:104730000024E0B22E8800F053FA052C4FD08642B8
:1047400005F1020504F10104F3D0274B1B789B0708
:1047500001D500F04BFAFFF78BFF002601905FFABE
:1047600086FA504600F03CFA37F8029B80464845EE
:104770002FD000244FF0010B80EA090909EA0B024F
:1047800092B2F2B108EA0B05ADB2019B003D18BF31
:1047900001258BB18DF808408DF809A005F038F897
:1047A0004FF00103ADF80A008DF80C308DF80D5074
:1047B000DDE90201FEF772FE2A462146504601F06D
:1047C00039FD0134E4B20F2C4FEA4B0BD6D127F858
:1047D000028C0136062EC2D1FFF718FF96E78642FB
:1047E000B3D191E714440020881E002038B500F0B2
:1047F000FDF8B0F5A44F044641D2B0F5A04F80F0CB
:10480000AA80DF2816D8CC2800F28880A7280AD8EA
:10481000A42876D8012804D0031F9BB2A12B28BF5F
:104820000024204638BDA0F1A8039BB21A2B6DD9F5
:104830000024F6E7B0F5804F18D2B0F5005F80F0A5
:104840009C80E728EDD9A0F580739BB2B3F5F85FA3
:10485000EED2C0F3072000F04DF90502E0B200F0FF
:10486000C5F805F4F85540EA0504DAE7C0B200F0EF
:10487000BDF804F47064204340F42044D1E7B0F55F
:10488000A54F21D245F25F23984251D845F23F23EC
:1048900098420ED845F21F23984242D8012300F0D7
:1048A0000304A340C0F3850243EA421343F40D44DA
:1048B000B7E7012300F00304A340C0F3820243EAF8
:1048C000421343F40C44ACE745F2BF2398420AD8A4
:1048D00045F29F23984200F01F0034D84AF2F403B7
:1048E00043EA00249DE7A0F5A543403B9BB21F2B64
:1048F0009ED8040204F4F85444F4204444F0F00434
:104900008FE7A0F1240444F480448AE7224B583412
:10491000E4B233F8144044F4884482E740F4A044FD
:104920007FE74AF2F10300F01F0443EA042478E72A
:10493000012300F00304A340C0F3820243EA4213C0
:1049400043F40A446DE700F0D5F8040204F4F85487
:1049500044F4005465E700F01F0000F0CBF803B208
:104960001A0112B210F0100F18BF1346C4F343140B
:1049700043EA042343F4104453E7C0F3042000F057
:10498000B9F80502E0B200F031F805F4F855054336
:1049900045F4005445E700BFFEE40008CBB2C1F384
:1049A0000721052982B005D80E2B11D81A4602B06E
:1049B00003F044BDFD2905D153B90122194602B0C7
:1049C00003F049BDFC2903D113B91A461946F6E78D
:1049D000002002B0704707B5ADF804100199FFF749
:1049E000DDFF03B05DF804EBFFF700BFE7284FD809
:1049F000DF2807D8312864D00ED8292857D02A2894
:104A000066D07047A0F1E003072B41D8DFE803F040
:104A10001540232831403C41392804D0822802D057
:104A200035283FD07047324B1A7892071FD15B78F8
:104A300013F0080F18BF292070472D4A1378D907A3
:104A40004DD4527812F0010F22D013F0100F14BF82
:104A50000020E3207047264B1B7813F0040FF3E788
:104A6000234A137859073CD45278D207EDD5E02079
:104A700070471F4B5A7891070AD51B7813F0100F17
:104A800014BF0020E7207047194B1B781A07F5D494
:104A90007047174A1378190725D452789107EDD536
:104AA000E4207047124B1B7813F0200FC2E7104B25
:104AB0001A78920619D45B7813F0080F18BF3920C2
:104AC00070470B4B1B7813F0400F18BF2A2070471C
:104AD000074B1B7813F0400F18BF31207047392067
:104AE0007047E2207047E62070473520D0E700BFCE
:104AF0002044002030B52F4D2B785A0711D500F0F7
:104B0000140100F018020C1F6142A2F1080C61416F
:104B1000DCF1000242EB0C0280F00C04914218BF61
:104B20002046190713D500F0140400F01801A4F171
:104B3000140CA1F11802DCF1000444EB0C04514206
:104B4000514180F00C02D2B28C4218BF10466D78F1
:104B5000E90713D500F0110400F0180104F1FF3C3F
:104B6000A1F10802DCF1000444EB0C045142514174
:104B700080F00902D2B28C4218BF1046AA0711D5A4
:104B800000F0110400F01801A4F111025442A1F147
:104B900018055441694280F009026941D2B28C4241
:104BA00018BF104600F0E70213F0100F18BF1046B0
:104BB00030BD00BF20440020002070470020704717
:104BC000014B1860704700BF880D0020704708B582
:104BD000FFF7FCFF08BD704708B5FFF7FCFF08BDF5
:104BE000014B33F8100070472E44002070474FF4FB
:104BF000346005F049BE00BF00BF00BF00BF00BF6A
:104C000000BF00BF00BF00BF00BF00BF00BF00BFAC
:104C100000BF00BF00BF00BF00BF00BF00BF00BF9C
:104C200000BF00BF00BF704708B5FFF7E0FF08BD39
:104C300008B5302383F31188012100F00F03994058
:104C4000202220F00F0007F04DFA002383F3118893
:104C500008BD000038B50F240B4D55F8040B421C5D
:104C600001D0FFF7E5FF013C14F0FF04F5D1062465
:104C7000064D55F8040B431C01D0FFF7D9FF013C4A
:104C800014F0FF04F5D138BD34E5000870E50008E4
:104C90002DE9F843244E0D4656F8211080464C1C51
:104CA00017463ED0302383F31188012221F00F09EB
:104CB00001F00F0102FA01F421464846240407F0EE
:104CC00011FAC9F81840002484F31188FFF793FF04
:104CD000DFF858C0A8F1020108F10A085CF8042BBB
:104CE00031F8023F501C19D022F00F00006902F089
:104CF0000F0220FA02F2D20710D401243B434145AF
:104D00000B80EBD156F82500431C01D0FFF790FF34
:104D100021462846BDE8F843FFF786BF23EA07038C
:104D2000EDE7BDE8F88300BF34E5000870E5000852
:104D300008B5FFF78FFF0C220021074808F0BBF8E9
:104D40000C220021054808F0B6F8062000F038F8DB
:104D5000BDE80840FFF73BBF2E440020224400205E
:104D600030B50024012585B00194029403942A46AD
:104D7000E1B201A80134FFF78BFF6D000F2CADB23B
:104D8000F5D10C220C4801A908F06CF8041E18BFDC
:104D9000012420B10C22084801A908F0D9F82346C3
:104DA00006220649044800F00DF80446FFF714FFF8
:104DB000204605B030BD00BF224400202E44002014
:104DC000704700002DE9F8438146884615461C4689
:104DD000114E43B10123337004F0E2FC0F4B186015
:104DE0000020BDE8F8833778002FF9D00B4B186806
:104DF00004F01AFD0428F3D9494640466A0008F039
:104E000031F828B1494640466A0008F0A1F83C460E
:104E1000002320463370E4E7901E00208C1E002003
:104E2000FFF76CBC08B504F07DFC05F0A5F8FFF7B2
:104E30000FFC05F0A3F8FFF745FC05F0B5F805F009
:104E4000B9F8FFF7EDFF05F0B7F805F071F803F0DA
:104E500021FAFFF711FCF2E7002307B50146012212
:104E60000DF107008DF8073000F086F89DF8070077
:104E700003B000BD002307B5014602220DF1060074
:104E8000ADF8063000F078F8BDF8060003B000BDBC
:104E900007B50422002301460DEB0200019300F048
:104EA0006BF8019803B000BD07B501228DF807101B
:104EB00001460DF1070000F064F803B000BD07B52E
:104EC0000222ADF8061001460DF1060000F059F877
:104ED00003B000BD07B50422019101460DEB0200AD
:104EE00000F04FF803B000BDF8B505461446D31DD9
:104EF00023F0070300AFADEB030D68460E4600F04C
:104F00003BF822466946284607F0ACFF20B122460E
:104F10003146284600F035F8BD46F8BD38B50C4698
:104F20000546FFF799FFA04205D021462846BDE877
:104F30003840FFF7B9BF38BD38B50C460546FFF716
:104F400099FFA04205D021462846BDE83840FFF72A
:104F5000B6BF38BD38B50C460546FFF799FFA042ED
:104F600005D021462846BDE83840FFF7B3BF38BD1D
:104F700000F00EB900F038B80B460146184600F0B4
:104F80004DB80B460146184600F09AB84FF48052CF
:104F900008B50021034807F08EFF41F20802024BDA
:104FA0001A6008BD981E0020982E002010B5054CF0
:104FB00023792BB900F065F908B10120207110BDEB
:104FC0000220FCE7982E002010B5064C237933B15F
:104FD00000F061F910B100230120237110BD0220FF
:104FE000FCE700BF982E002038B5FFF7DFFF04462E
:104FF00018B9FFF7E9FF204638BD00F044F905462F
:10500000FFF7C4FF012C06D1FFF7DEFF00280CBF1D
:10501000002505F001052C46EDE700008318B3F5E7
:10502000805F10B50C4606D804490144204607F0BD
:105030008FFF012010BD0020FCE700BF981E00205C
:1050400038B500F020F928B3FFF7B0FF4FF4007235
:1050500005461349002000F03BF9C8B10EA3D3E97F
:1050600000234FF480510E4802F02EFE02460B46FC
:105070004FF4805000F063F94000C4B2012D01D11B
:10508000FFF7A2FF41F20802064B1A60204638BD26
:105090000446F3E70446F9E725232284E49CF2CB97
:1050A000981E0020982E0020044B1B68B3F5005F6B
:1050B00001D3FFF7C5BF0120704700BF982E002025
:1050C0002DE9F04F8318B3F5805F04460E46154670
:1050D00085B01BD82C4FC119304607F0C3FE0028FD
:1050E0004FD02A463146E01907F032FFFFF75EFF46
:1050F000834648B14FF000084FF0000907F580578C
:105100004DB9FFF7D1FF24E0FFF75EFF00231846FB
:1051100005B0BDE8F08F052DAA4628BF4FF0050A5F
:10512000C4F3024343EACA03CDE9028952468DF82B
:1051300008303146230A0DF10B008DF809308DF847
:105140000A4007F005FFDDE90223386800F0F7F8B0
:1051500050B90346BBF1010FD9D10193FFF734FFDA
:105160000028D3D0019BD2E73B6808333B60FFF7B0
:105170009BFF01280346EDD1A5EB0A055444564494
:10518000BEE70123C3E700BF981E00200000000017
:105190007FB5FFF7FBFE00F06FF828B9FFF7F6FECA
:1051A0000024204604B070BD4FF400720020304946
:1051B00000F073F82E4D002849D02BA3D3E900232B
:1051C0004FF48051284602F07FFD06460C464FF40E
:1051D000805002A900F079F8DDE902239C4208BF63
:1051E000964201D0FFF7D2FE41F2080469462046FC
:1051F00000F06BF828B3DDE9003253EA02011FD05A
:1052000013F0C00FCDE9023204F10804D9B221D164
:105210001BBA080423F07F4300F4E02023F0FF03CF
:1052200040EA3320CA0800EBD101B1F5805F11D804
:105230000DF10B01284407F08BFEB4F5005FD5D1CA
:1052400001200C4B1C6038B1FFF72EFF06E0FFF782
:105250009DFEA3E7074B1C60FFF7F2FE0446002803
:105260009FD1FFF793FE9CE725232284E49CF2CB99
:10527000981E0020982E002008B500F0DEF80120CE
:1052800008BD0120704708B5002000F0D8F8B0FA3A
:1052900080F0400908BD0120704738B5D5002A4686
:1052A0000C4600F0EDF818B921462544A94203D177
:1052B000B0FA80F0400938BDD1E90023D243DB4386
:1052C00041F8082B41F8043CF0E70122FFF7E5BF65
:1052D0002DE9F0430646884615460027C1B0202D2B
:1052E000AC4628BF4FF0200C6B466C4608EBC7025B
:1052F000674408EBC70E724510D10024644512D1F3
:1053000069463046E20000F0D9F8B0B92D1B06EB33
:10531000C406E4D1012041B0BDE8F083F2E8020107
:10532000E4E80201E7E7D3E90012C943D24343F8B6
:10533000081B43F8042C0134E0E70020EBE707B535
:10534000CDE9002369460122FFF7C2FF03B000BD8B
:10535000002208231146014804F0E2BA0C0800407C
:1053600008B5FFF7F5FF30B1062004F019FB04F093
:105370004DFB002008BD4FF0FF30FBE7F7B51F469F
:105380004BBA090C064615468DF80400ADF80630F8
:105390008DF80510FFF7DCFFE8B104210DEB0100EB
:1053A00004F020FB044648B945B1022E0BD0032E71
:1053B0000ED12846B9B204F01FFB044604F026FBC8
:1053C000204603B0F0BD2846B9B204F00BFBF4E769
:1053D0004FF0FF34F2E74FF0FF34F1E710B5FFF77D
:1053E000B7FF80B1052004F0DBFA04F0EBFA0446C5
:1053F00004F00CFB002C04DB14F0010418BF6FF068
:105400000304204610BD4FF0FF34FAE710B5044600
:1054100004F0C6F94FF47A7303FB040404F0C0F9F6
:10542000A04204D2FFF7DAFF031DF7D010BD6FF0E2
:105430000100FBE70120FFF7E9BF04F037BA00F5F0
:105440008033B3F5002F10B5044602D34FF0FF3080
:1054500010BD83B2002BF9D1FFF7ECFF0028F7D184
:10546000FFF77EFF02460028F0D103462146D820F0
:10547000FFF784FF0028EBD1BDE81040FFF7DABF4B
:105480002DE9F04180460D461646FFF7D3FF04464E
:10549000074638B132460021284607F00CFD204669
:1054A000BDE8F08133462A4641460320FFF766FFF8
:1054B00004460028F3D032463946EDE72DE9F041A5
:1054C0000746884616465EB9FFF7B4FF044620B982
:1054D000FFF73EFF00BB4FF0FF342046BDE8F081F0
:1054E000FFF7A8FF04460028F7D1FFF739FF00288F
:1054F000F1D1FDB2C5F58075B54228BF35464246AB
:105500002B4639460220FFF739FF04460028E4D134
:10551000A8442F44761BD6E7042004F041FA04F097
:1055200075FADAE730B510F47F4F85B00190C0F31B
:105530000725C0F307420FD109B1274B9A5C1346E8
:1055400014460020DBB263F30700E4B264F30F20DB
:1055500062F3174005B030BD9DF8044009B11E4B01
:105560009A5C0620FF236043591BB0FBF3F06FF0F9
:105570005403434303EB440303EB4303DBB203FB5A
:1055800005F4C3F1FF036B4324121B12C4F1FF04A3
:10559000C3F1FF03514354435343091224121B1216
:1055A000062813D8DFE800F004060B090E120400E9
:1055B00014461A4613460A46C3E7134622460C46CB
:1055C0001946F7E71C4613460A46F9E713460A460A
:1055D00021461C46EEE700BFA0E50008012184B08B
:1055E00004B0FFF79FBF012810B501D8C0B210BDAD
:1055F000B0F5F75F88BFFF224FF001019EBF42095F
:105600000832D2B28B185B1003FB03F4A4B2A042A1
:1056100006D2013BDAB29142F4D90139C8B2E6E7C9
:10562000FF2B02D00133D9B2F5E71846DFE70000BF
:10563000064B188800EB402200EB820000F5585022
:105640001930188000EB1020C0B27047920D002076
:10565000430658BF034610B548BF80F0FF030E4C09
:1056600048BF03F00F02C3F3011304EB4301497871
:1056700054BF00F00F0201324A4314F8133010F007
:10568000800F03EB2213DBB2C3F10002D2B218BFCA
:10569000134683F0800010BD88E50008144B84B0E9
:1056A00003EB4103E421019093F85A30C0F3072043
:1056B0004B43C2EB13231C33002BB8BF5B42A0EB60
:1056C000C3031BB223EAE373434300201B128DF88C
:1056D0000530019BDAB262F30700C3F3072262F3DD
:1056E0000F20C3F3074363F3174004B0704700BFB4
:1056F0002D0C0020144B84B003EB4103E4210190F6
:1057000093F85A30C0F307404B43C2EB13231C33CA
:10571000002BB8BF5B42A0EBC3031BB223EAE373C9
:10572000434300201B128DF80630019BDAB262F36E
:105730000700C3F3072262F30F20C3F3074363F3A9
:10574000174004B0704700BF2D0C002084B00190BA
:1057500000208DF80420019BDAB262F30700C3F346
:10576000072262F30F20C3F3074363F3174004B02B
:105770007047000084B0019000200B4B03EB410305
:1057800093F85A309B1A8DF80430019BDAB262F319
:105790000700C3F3072262F30F20C3F3074363F349
:1057A000174004B0704700BF2D0C002084B001905A
:1057B00000200B4B03EB410393F85B309B1A8DF8F1
:1057C0000430019BDAB262F30700C3F3072262F3ED
:1057D0000F20C3F3074363F3174004B0704700BFC3
:1057E0002D0C00201FB5124C2C31019004EB41040C
:1057F000E378A3F12001C3F120035BB249B231EA9F
:10580000210128BF1946A3789B1A0B4403440020AA
:105810008DF80430019BDAB262F30700C3F307226C
:1058200062F30F20C3F3074363F3174004B010BDC6
:105830002D0C002084B0019000209DF8102003EB77
:10584000430302EB53038DF80430019BDAB262F399
:105850000700C3F3072262F30F20C3F3074363F388
:10586000174004B070471FB5019048B2494249B291
:1058700030EA200028BF08465243C0F1380000FB40
:10588000002080B21C46FFF7AEFE00EB400004444F
:1058900000208DF80440019BDAB262F30700C3F3E5
:1058A000072262F30F20C3F3074363F3174004B0EA
:1058B00010BD000084B0019003F12C00104B03EBED
:1058C0004003D8789B782038703B4B4302FB003272
:1058D00000209DF80430002AB8BF7F3203EBE213AA
:1058E0008DF80430019BDAB262F30700C3F307229C
:1058F00062F30F20C3F3074363F3174004B070470C
:105900002D0C002084B0019003F12C00104B03EB10
:105910004003D8789B782038703B4B4302FB003221
:1059200000209DF80430002AB8BF3F3203EBA213D9
:105930008DF80430019BDAB262F30700C3F307224B
:1059400062F30F20C3F3074363F3174004B07047BB
:105950002D0C002030B503F12C04174B85B00190BD
:1059600003EB44039C78DD78A4F17003C4F1700468
:1059700064B25BB233EA230328BF2346C3F1380382
:105980004B43203D02FB053212EB420248BF7F32FF
:1059900000EBE2108DF804000020019BDAB262F304
:1059A0000700C3F3072262F30F20C3F3074363F337
:1059B000174005B030BD00BF2D0C002030B50D469E
:1059C00085B0019004461046FFF742FE124B03EBF0
:1059D000450393F85A3018440206A0F1800358BFDB
:1059E0006FF07F034FF00C0258BF1B1A00205B00C2
:1059F000DBB2534304EB13248DF80440019BDAB26D
:105A000062F30700C3F3072262F30F20C3F30743D7
:105A100063F3174005B030BD2D0C00201FB5114BAE
:105A2000019003EB410393F85A40A11A121BD2B222
:105A300011F0800FCBB218BF13461822534300EB6E
:105A400023208DF804000020019BDAB262F30700E6
:105A5000C3F3072262F30F20C3F3074363F3174036
:105A600004B010BD2D0C0020C94384B00190C9B210
:105A7000C0F307404143002009128DF80610019B36
:105A8000DAB262F30700C3F3072262F30F20C3F315
:105A9000074363F3174004B07047C94384B0C1F3B0
:105AA00085010190014400208DF80410019BDAB2B9
:105AB00062F30700C3F3072262F30F20C3F3074327
:105AC00063F3174004B0704784B003EB8302BDF862
:105AD0001030019013449BB2FF2B28BFFF23DB4300
